{
  "_format": "hh-sol-artifact-1",
  "contractName": "NFTData",
  "sourceName": "contracts/NFTData.sol",
  "abi": [
    {
      "inputs": [],
      "stateMutability": "nonpayable",
      "type": "constructor"
    },
    {
      "inputs": [
        {
          "internalType": "uint8",
          "name": "index",
          "type": "uint8"
        },
        {
          "internalType": "bytes",
          "name": "encoding",
          "type": "bytes"
        },
        {
          "internalType": "string",
          "name": "name",
          "type": "string"
        }
      ],
      "name": "addAsset",
      "outputs": [],
      "stateMutability": "nonpayable",
      "type": "function"
    },
    {
      "inputs": [
        {
          "internalType": "uint64",
          "name": "key1",
          "type": "uint64"
        },
        {
          "internalType": "uint32",
          "name": "value1",
          "type": "uint32"
        },
        {
          "internalType": "uint64",
          "name": "key2",
          "type": "uint64"
        },
        {
          "internalType": "uint32",
          "name": "value2",
          "type": "uint32"
        },
        {
          "internalType": "uint64",
          "name": "key3",
          "type": "uint64"
        },
        {
          "internalType": "uint32",
          "name": "value3",
          "type": "uint32"
        },
        {
          "internalType": "uint64",
          "name": "key4",
          "type": "uint64"
        },
        {
          "internalType": "uint32",
          "name": "value4",
          "type": "uint32"
        }
      ],
      "name": "addComposites",
      "outputs": [],
      "stateMutability": "nonpayable",
      "type": "function"
    },
    {
      "inputs": [
        {
          "internalType": "uint8",
          "name": "index",
          "type": "uint8"
        },
        {
          "internalType": "bytes",
          "name": "_punks",
          "type": "bytes"
        }
      ],
      "name": "addPunks",
      "outputs": [],
      "stateMutability": "nonpayable",
      "type": "function"
    },
    {
      "inputs": [
        {
          "internalType": "uint32",
          "name": "index",
          "type": "uint32"
        }
      ],
      "name": "punkAttributes",
      "outputs": [
        {
          "internalType": "string",
          "name": "text",
          "type": "string"
        }
      ],
      "stateMutability": "view",
      "type": "function"
    },
    {
      "inputs": [
        {
          "internalType": "uint32",
          "name": "index",
          "type": "uint32"
        }
      ],
      "name": "punkBackground",
      "outputs": [
        {
          "internalType": "string",
          "name": "text",
          "type": "string"
        }
      ],
      "stateMutability": "view",
      "type": "function"
    },
    {
      "inputs": [
        {
          "internalType": "uint32",
          "name": "index",
          "type": "uint32"
        }
      ],
      "name": "punkDecode",
      "outputs": [
        {
          "internalType": "bytes",
          "name": "",
          "type": "bytes"
        }
      ],
      "stateMutability": "view",
      "type": "function"
    },
    {
      "inputs": [
        {
          "internalType": "uint32",
          "name": "_bg",
          "type": "uint32"
        },
        {
          "internalType": "uint32",
          "name": "_archetype",
          "type": "uint32"
        },
        {
          "internalType": "uint32",
          "name": "_hair",
          "type": "uint32"
        },
        {
          "internalType": "uint32",
          "name": "_beard",
          "type": "uint32"
        },
        {
          "internalType": "uint32",
          "name": "_eyes",
          "type": "uint32"
        },
        {
          "internalType": "uint32",
          "name": "_cheeks",
          "type": "uint32"
        },
        {
          "internalType": "uint32",
          "name": "_mouth",
          "type": "uint32"
        },
        {
          "internalType": "uint32",
          "name": "_other",
          "type": "uint32"
        }
      ],
      "name": "punkEncode",
      "outputs": [
        {
          "internalType": "uint32",
          "name": "",
          "type": "uint32"
        }
      ],
      "stateMutability": "view",
      "type": "function"
    },
    {
      "inputs": [
        {
          "internalType": "uint32",
          "name": "index",
          "type": "uint32"
        }
      ],
      "name": "punkImage",
      "outputs": [
        {
          "internalType": "bytes",
          "name": "",
          "type": "bytes"
        }
      ],
      "stateMutability": "view",
      "type": "function"
    },
    {
      "inputs": [
        {
          "internalType": "uint32",
          "name": "index",
          "type": "uint32"
        }
      ],
      "name": "punkImageSvg",
      "outputs": [
        {
          "internalType": "string",
          "name": "svg",
          "type": "string"
        }
      ],
      "stateMutability": "view",
      "type": "function"
    },
    {
      "inputs": [],
      "name": "sealContract",
      "outputs": [],
      "stateMutability": "nonpayable",
      "type": "function"
    },
    {
      "inputs": [
        {
          "internalType": "bytes",
          "name": "_palette",
          "type": "bytes"
        }
      ],
      "name": "setPalette",
      "outputs": [],
      "stateMutability": "nonpayable",
      "type": "function"
    }
  ],
  "bytecode": "0x60e06040526000600560146101000a81548160ff0219169083151502179055506040518060a00160405280602160ff168152602001604460ff168152602001603d60ff168152602001601260ff168152602001602960ff1681525060069060056200006c929190620006b9565b506040518060c00160405280607660ff168152602001608560ff168152602001605060ff168152602001607d60ff168152602001606d60ff168152602001606a60ff168152506007906006620000c49291906200075a565b506040518060c00160405280603460ff168152602001602260ff168152602001601860ff168152602001601360ff168152602001604060ff168152602001602060ff1681525060089060066200011c9291906200075a565b506040518060c00160405280608360ff168152602001606c60ff168152602001604d60ff168152602001607360ff168152602001605f60ff168152602001607860ff168152506009906006620001749291906200075a565b506040518060600160405280600c60ff168152602001601b60ff168152602001603760ff16815250600a906003620001ae929190620007fb565b506040518060600160405280608060ff168152602001605560ff168152602001605760ff16815250600b906003620001e8929190620007fb565b50604051806101800160405280601560ff168152602001601d60ff168152602001601f60ff168152602001602360ff168152602001601460ff168152602001603e60ff168152602001604860ff168152602001602b60ff168152602001604760ff168152602001602c60ff168152602001602760ff168152602001604960ff16815250600c90600c6200027d9291906200089c565b50604051806101c00160405280605260ff168152602001606660ff168152602001607c60ff168152602001605460ff168152602001605960ff168152602001608460ff168152602001607760ff168152602001606760ff168152602001606460ff168152602001607260ff168152602001605e60ff168152602001604e60ff168152602001606160ff168152602001607e60ff16815250600d90600e620003269291906200093d565b50604051806101800160405280600d60ff168152602001601760ff168152602001602860ff168152602001602a60ff168152602001603660ff168152602001603860ff168152602001604260ff168152602001603b60ff168152602001604560ff168152602001601160ff168152602001601a60ff168152602001603060ff16815250600e90600c620003bb9291906200089c565b50604051806103200160405280600e60ff168152602001601c60ff168152602001602d60ff168152602001603160ff168152602001603260ff168152602001603960ff168152602001604160ff168152602001604660ff168152602001600f60ff168152602001602460ff168152602001604a60ff168152602001601660ff168152602001601960ff168152602001602660ff168152602001603360ff168152602001601060ff168152602001602e60ff168152602001602f60ff168152602001603c60ff168152602001603f60ff168152602001601e60ff168152602001602560ff168152602001603560ff168152602001603a60ff168152602001604360ff16815250600f906019620004d2929190620009de565b50604051806103c00160405280606860ff168152602001606060ff168152602001605860ff168152602001605160ff168152602001605d60ff168152602001606260ff168152602001604f60ff168152602001605660ff168152602001606360ff168152602001607f60ff168152602001608260ff168152602001605c60ff168152602001607560ff168152602001607b60ff168152602001604b60ff168152602001605a60ff168152602001605b60ff168152602001606960ff168152602001607160ff168152602001604c60ff168152602001607960ff168152602001606b60ff168152602001607460ff168152602001606e60ff168152602001606f60ff168152602001605360ff168152602001606560ff168152602001607060ff168152602001607a60ff168152602001608160ff16815250601090601e6200061b92919062000a7f565b503480156200062957600080fd5b5033600560006101000a81548173ffffffffffffffffffffffffffffffffffffffff021916908373ffffffffffffffffffffffffffffffffffffffff160217905550634c957f2d63ffffffff1660808163ffffffff168152505063f767814f63ffffffff1660a08163ffffffff168152505063329e28a563ffffffff1660c08163ffffffff168152505062000b3f565b826005601f01602090048101928215620007475791602002820160005b838211156200071657835183826101000a81548160ff021916908360ff1602179055509260200192600101602081600001049283019260010302620006d6565b8015620007455782816101000a81549060ff021916905560010160208160000104928301926001030262000716565b505b50905062000756919062000b20565b5090565b826006601f01602090048101928215620007e85791602002820160005b83821115620007b757835183826101000a81548160ff021916908360ff160217905550926020019260010160208160000104928301926001030262000777565b8015620007e65782816101000a81549060ff0219169055600101602081600001049283019260010302620007b7565b505b509050620007f7919062000b20565b5090565b826003601f01602090048101928215620008895791602002820160005b838211156200085857835183826101000a81548160ff021916908360ff160217905550926020019260010160208160000104928301926001030262000818565b8015620008875782816101000a81549060ff021916905560010160208160000104928301926001030262000858565b505b50905062000898919062000b20565b5090565b82600c601f016020900481019282156200092a5791602002820160005b83821115620008f957835183826101000a81548160ff021916908360ff1602179055509260200192600101602081600001049283019260010302620008b9565b8015620009285782816101000a81549060ff0219169055600101602081600001049283019260010302620008f9565b505b50905062000939919062000b20565b5090565b82600e601f01602090048101928215620009cb5791602002820160005b838211156200099a57835183826101000a81548160ff021916908360ff16021790555092602001926001016020816000010492830192600103026200095a565b8015620009c95782816101000a81549060ff02191690556001016020816000010492830192600103026200099a565b505b509050620009da919062000b20565b5090565b826019601f0160209004810192821562000a6c5791602002820160005b8382111562000a3b57835183826101000a81548160ff021916908360ff1602179055509260200192600101602081600001049283019260010302620009fb565b801562000a6a5782816101000a81549060ff021916905560010160208160000104928301926001030262000a3b565b505b50905062000a7b919062000b20565b5090565b82601e601f0160209004810192821562000b0d5791602002820160005b8382111562000adc57835183826101000a81548160ff021916908360ff160217905550926020019260010160208160000104928301926001030262000a9c565b801562000b0b5782816101000a81549060ff021916905560010160208160000104928301926001030262000adc565b505b50905062000b1c919062000b20565b5090565b5b8082111562000b3b57600081600090555060010162000b21565b5090565b60805160a05160c05161377262000b846000396000818161146b0152611758015260008181610fef0152818161144801526117350152600061101101526137726000f3fe608060405234801561001057600080fd5b50600436106100a95760003560e01c80636f2a6568116100715780636f2a656814610164578063844e2cd5146101805780639fd23d011461019c578063a1d0baf7146101cc578063cd2ef12e146101fc578063dae2ae201461022c576100a9565b8063205321a4146100ae57806326b97364146100de5780632d459c80146100fa578063459b24881461012a57806368bd580e1461015a575b600080fd5b6100c860048036038101906100c391906125f0565b610248565b6040516100d591906126ad565b60405180910390f35b6100f860048036038101906100f3919061283d565b610af5565b005b610114600480360381019061010f91906125f0565b610c00565b60405161012191906128ee565b60405180910390f35b610144600480360381019061013f9190612910565b610f52565b60405161015191906129d5565b60405180910390f35b610162611045565b005b61017e60048036038101906101799190612a30565b611142565b005b61019a60048036038101906101959190612ae6565b611344565b005b6101b660048036038101906101b191906125f0565b611437565b6040516101c391906128ee565b60405180910390f35b6101e660048036038101906101e191906125f0565b61157b565b6040516101f391906128ee565b60405180910390f35b610216600480360381019061021191906125f0565b6116d2565b60405161022391906126ad565b60405180910390f35b61024660048036038101906102419190612bd0565b611ee2565b005b60606000610255836116d2565b9050600061090067ffffffffffffffff81111561027557610274612712565b5b6040519080825280601f01601f1916602001820160405280156102a75781602001600182028036833780820191505090505b50905060005b60078160ff161015610aea57600060f81b838260ff16815181106102d4576102d3612c5b565b5b602001015160f81c60f81b7effffffffffffffffffffffffffffffffffffffffffffffffffffffffffffff19161115610ad757600060016000858460ff168151811061032357610322612c5b565b5b602001015160f81c60f81b60f81c60ff1660ff16815260200190815260200160002090506000600382805461035790612cb9565b90506103639190612d52565b905060005b81811015610ad35760006040518060800160405280600460f08760038761038f9190612d83565b815461039a90612cb9565b81106103a9576103a8612c5b565b5b8154600116156103c85790600052602060002090602091828204019190065b9054901a7f01000000000000000000000000000000000000000000000000000000000000000260f81c1660ff16901c8152602001600f8660038661040c9190612d83565b815461041790612cb9565b811061042657610425612c5b565b5b8154600116156104455790600052602060002090602091828204019190065b9054901a7f01000000000000000000000000000000000000000000000000000000000000000260f81c1660ff168152602001600460f087600260038861048b9190612d83565b6104959190612dc5565b81546104a090612cb9565b81106104af576104ae612c5b565b5b8154600116156104ce5790600052602060002090602091828204019190065b9054901a7f01000000000000000000000000000000000000000000000000000000000000000260f81c1660ff16901c8152602001600f8660026003876105149190612d83565b61051e9190612dc5565b815461052990612cb9565b811061053857610537612c5b565b5b8154600116156105575790600052602060002090602091828204019190065b9054901a7f01000000000000000000000000000000000000000000000000000000000000000260f81c1660ff16815250905060005b6002811015610abe5760005b6002811015610aaa576000600483856000600481106105ba576105b9612c5b565b5b602002015160026105cb9190612d83565b6105d59190612dc5565b601884876001600481106105ec576105eb612c5b565b5b602002015160026105fd9190612d83565b6106079190612dc5565b6106119190612d83565b61061b9190612dc5565b6106259190612d83565b90506000826002856106379190612d83565b6106419190612dc5565b6001901b8560026004811061065957610658612c5b565b5b602002015116146109175760006107838860016003896106799190612d83565b6106839190612dc5565b815461068e90612cb9565b811061069d5761069c612c5b565b5b8154600116156106bc5790600052602060002090602091828204019190065b9054901a7f0100000000000000000000000000000000000000000000000000000000000000028b84815181106106f5576106f4612c5b565b5b602001015160f81c60f81b8c60018661070e9190612dc5565b8151811061071f5761071e612c5b565b5b602001015160f81c60f81b8d6002876107389190612dc5565b8151811061074957610748612c5b565b5b602001015160f81c60f81b8e6003886107629190612dc5565b8151811061077357610772612c5b565b5b602001015160f81c60f81b612015565b90508060006004811061079957610798612c5b565b5b1a60f81b8a83815181106107b0576107af612c5b565b5b60200101907effffffffffffffffffffffffffffffffffffffffffffffffffffffffffffff1916908160001a905350806001600481106107f3576107f2612c5b565b5b1a60f81b8a6001846108059190612dc5565b8151811061081657610815612c5b565b5b60200101907effffffffffffffffffffffffffffffffffffffffffffffffffffffffffffff1916908160001a9053508060026004811061085957610858612c5b565b5b1a60f81b8a60028461086b9190612dc5565b8151811061087c5761087b612c5b565b5b60200101907effffffffffffffffffffffffffffffffffffffffffffffffffffffffffffff1916908160001a905350806003600481106108bf576108be612c5b565b5b1a60f81b8a6003846108d19190612dc5565b815181106108e2576108e1612c5b565b5b60200101907effffffffffffffffffffffffffffffffffffffffffffffffffffffffffffff1916908160001a90535050610a96565b6000826002856109279190612d83565b6109319190612dc5565b6001901b8560036004811061094957610948612c5b565b5b60200201511614610a9557600060f81b89828151811061096c5761096b612c5b565b5b60200101907effffffffffffffffffffffffffffffffffffffffffffffffffffffffffffff1916908160001a905350600060f81b896001836109ae9190612dc5565b815181106109bf576109be612c5b565b5b60200101907effffffffffffffffffffffffffffffffffffffffffffffffffffffffffffff1916908160001a905350600060f81b89600283610a019190612dc5565b81518110610a1257610a11612c5b565b5b60200101907effffffffffffffffffffffffffffffffffffffffffffffffffffffffffffff1916908160001a90535060ff60f81b89600383610a549190612dc5565b81518110610a6557610a64612c5b565b5b60200101907effffffffffffffffffffffffffffffffffffffffffffffffffffffffffffff1916908160001a9053505b5b508080610aa290612df9565b915050610598565b508080610ab690612df9565b91505061058c565b50508080610acb90612df9565b915050610368565b5050505b8080610ae290612e41565b9150506102ad565b508092505050919050565b600560009054906101000a900473ffffffffffffffffffffffffffffffffffffffff1673ffffffffffffffffffffffffffffffffffffffff163373ffffffffffffffffffffffffffffffffffffffff1614610b85576040517f08c379a0000000000000000000000000000000000000000000000000000000008152600401610b7c90612eb6565b60405180910390fd5b600560149054906101000a900460ff1615610bd5576040517f08c379a0000000000000000000000000000000000000000000000000000000008152600401610bcc90612f22565b60405180910390fd5b80600460008460ff1660ff1681526020019081526020016000209081610bfb91906130ee565b505050565b60606000610c0d83610248565b90506040518060800160405280604f81526020016136ee604f9139604051602001610c3891906131fc565b60405160208183030381529060405291506000600867ffffffffffffffff811115610c6657610c65612712565b5b6040519080825280601f01601f191660200182016040528015610c985781602001600182028036833780820191505090505b50905060005b6018811015610ef15760005b6018811015610edd576000600482601885610cc59190612d83565b610ccf9190612dc5565b610cd99190612d83565b9050600085600383610ceb9190612dc5565b81518110610cfc57610cfb612c5b565b5b602001015160f81c60f81b60f81c60ff161115610ec95760005b6004811015610e8f576000868284610d2e9190612dc5565b81518110610d3f57610d3e612c5b565b5b602001015160f81c60f81b60f81c90507f3031323334353637383961626364656600000000000000000000000000000000600f821660ff1660108110610d8857610d87612c5b565b5b1a60f81b866001600285610d9c9190612d83565b610da69190612dc5565b81518110610db757610db6612c5b565b5b60200101907effffffffffffffffffffffffffffffffffffffffffffffffffffffffffffff1916908160001a90535060048160ff16901c90507f3031323334353637383961626364656600000000000000000000000000000000600f821660ff1660108110610e2957610e28612c5b565b5b1a60f81b86600284610e3b9190612d83565b81518110610e4c57610e4b612c5b565b5b60200101907effffffffffffffffffffffffffffffffffffffffffffffffffffffffffffff1916908160001a905350508080610e8790612df9565b915050610d16565b5085610e9a83612440565b610ea385612440565b86604051602001610eb79493929190613369565b60405160208183030381529060405295505b508080610ed590612df9565b915050610caa565b508080610ee990612df9565b915050610c9e565b50826040518060400160405280600681526020017f3c2f7376673e0000000000000000000000000000000000000000000000000000815250604051602001610f3a9291906133d3565b60405160208183030381529060405292505050919050565b600080601e60048b610f6491906133f7565b63ffffffff16901b905080601a600f8b1663ffffffff16901b179050806015601f8a1663ffffffff16901b179050806011600f891663ffffffff16901b17905080600c601f881663ffffffff16901b1790508060096007871663ffffffff16901b179050806005600f861663ffffffff16901b17905080601f8416179050600163ffffffff8016901c7f0000000000000000000000000000000000000000000000000000000000000000827f000000000000000000000000000000000000000000000000000000000000000002011690508091505098975050505050505050565b600560009054906101000a900473ffffffffffffffffffffffffffffffffffffffff1673ffffffffffffffffffffffffffffffffffffffff163373ffffffffffffffffffffffffffffffffffffffff16146110d5576040517f08c379a00000000000000000000000000000000000000000000000000000000081526004016110cc90612eb6565b60405180910390fd5b600560149054906101000a900460ff1615611125576040517f08c379a000000000000000000000000000000000000000000000000000000000815260040161111c90612f22565b60405180910390fd5b6001600560146101000a81548160ff021916908315150217905550565b600560009054906101000a900473ffffffffffffffffffffffffffffffffffffffff1673ffffffffffffffffffffffffffffffffffffffff163373ffffffffffffffffffffffffffffffffffffffff16146111d2576040517f08c379a00000000000000000000000000000000000000000000000000000000081526004016111c990612eb6565b60405180910390fd5b600560149054906101000a900460ff1615611222576040517f08c379a000000000000000000000000000000000000000000000000000000000815260040161121990612f22565b60405180910390fd5b86600360008a67ffffffffffffffff1667ffffffffffffffff16815260200190815260200160002060006101000a81548163ffffffff021916908363ffffffff16021790555084600360008867ffffffffffffffff1667ffffffffffffffff16815260200190815260200160002060006101000a81548163ffffffff021916908363ffffffff16021790555082600360008667ffffffffffffffff1667ffffffffffffffff16815260200190815260200160002060006101000a81548163ffffffff021916908363ffffffff16021790555080600360008467ffffffffffffffff1667ffffffffffffffff16815260200190815260200160002060006101000a81548163ffffffff021916908363ffffffff1602179055505050505050505050565b600560009054906101000a900473ffffffffffffffffffffffffffffffffffffffff1673ffffffffffffffffffffffffffffffffffffffff163373ffffffffffffffffffffffffffffffffffffffff16146113d4576040517f08c379a00000000000000000000000000000000000000000000000000000000081526004016113cb90612eb6565b60405180910390fd5b600560149054906101000a900460ff1615611424576040517f08c379a000000000000000000000000000000000000000000000000000000000815260040161141b90612f22565b60405180910390fd5b806000908161143391906130ee565b5050565b60606000600163ffffffff8016901c7f000000000000000000000000000000000000000000000000000000000000000084037f0000000000000000000000000000000000000000000000000000000000000000021690506000601e8263ffffffff16901c905060018160ff1611156114e6576040518060400160405280600781526020017f23363338353935000000000000000000000000000000000000000000000000008152509250611574565b60008160ff160361152e576040518060400160405280600781526020017f23393535353466000000000000000000000000000000000000000000000000008152509250611573565b60018160ff1603611572576040518060400160405280600781526020017f233865366662360000000000000000000000000000000000000000000000000081525092505b5b5b5050919050565b60606000611588836116d2565b905060005b60078110156116cb5760008282815181106115ab576115aa612c5b565b5b602001015160f81c60f81b60f81c905060008160ff1611156116b75760008211156116115783600260008360ff1660ff1681526020019081526020016000206040516020016115fb92919061350c565b60405160208183030381529060405293506116b6565b600260008260ff1660ff168152602001908152602001600020805461163590612cb9565b80601f016020809104026020016040519081016040528092919081815260200182805461166190612cb9565b80156116ae5780601f10611683576101008083540402835291602001916116ae565b820191906000526020600020905b81548152906001019060200180831161169157829003601f168201915b505050505093505b5b5080806116c390612df9565b91505061158d565b5050919050565b60606000600767ffffffffffffffff8111156116f1576116f0612712565b5b6040519080825280601f01601f1916602001820160405280156117235781602001600182028036833780820191505090505b5090506000600163ffffffff8016901c7f000000000000000000000000000000000000000000000000000000000000000085037f0000000000000000000000000000000000000000000000000000000000000000021690506000601f821690506000600f60058463ffffffff16901c1690506000600760098563ffffffff16901c1690506000601f600c8663ffffffff16901c1690506000600f60118763ffffffff16901c1690506000601f60158863ffffffff16901c1690506000600b600f601a8a63ffffffff16901c166117f991906133f7565b9050600060048260ff161080611812575060078260ff16115b90508015611b965760048860ff16116118575760068860ff166005811061183c5761183b612c5b565b5b602091828204019190069054906101000a900460ff1661185a565b60005b60f81b8a60008151811061187157611870612c5b565b5b60200101907effffffffffffffffffffffffffffffffffffffffffffffffffffffffffffff1916908160001a90535060058760ff16116118dd5760088760ff16600681106118c2576118c1612c5b565b5b602091828204019190069054906101000a900460ff166118e0565b60005b60f81b8a6001815181106118f7576118f6612c5b565b5b60200101907effffffffffffffffffffffffffffffffffffffffffffffffffffffffffffff1916908160001a90535060028660ff161161196357600a8660ff166003811061194857611947612c5b565b5b602091828204019190069054906101000a900460ff16611966565b60005b60f81b8a60028151811061197d5761197c612c5b565b5b60200101907effffffffffffffffffffffffffffffffffffffffffffffffffffffffffffff1916908160001a905350600b8560ff16116119e957600c8560ff16600c81106119ce576119cd612c5b565b5b602091828204019190069054906101000a900460ff166119ec565b60005b60f81b8a600381518110611a0357611a02612c5b565b5b60200101907effffffffffffffffffffffffffffffffffffffffffffffffffffffffffffff1916908160001a905350600b8460ff1611611a6f57600e8460ff16600c8110611a5457611a53612c5b565b5b602091828204019190069054906101000a900460ff16611a72565b60005b60f81b8a600481518110611a8957611a88612c5b565b5b60200101907effffffffffffffffffffffffffffffffffffffffffffffffffffffffffffff1916908160001a90535060188360ff1611611af557600f8360ff1660198110611ada57611ad9612c5b565b5b602091828204019190069054906101000a900460ff16611af8565b60005b60f81b8a600581518110611b0f57611b0e612c5b565b5b60200101907effffffffffffffffffffffffffffffffffffffffffffffffffffffffffffff1916908160001a905350600182611b4b919061353b565b60f81b8a600681518110611b6257611b61612c5b565b5b60200101907effffffffffffffffffffffffffffffffffffffffffffffffffffffffffffff1916908160001a905350611ed0565b60048860ff1611611bd35760078860ff1660068110611bb857611bb7612c5b565b5b602091828204019190069054906101000a900460ff16611bd6565b60005b60f81b8a600081518110611bed57611bec612c5b565b5b60200101907effffffffffffffffffffffffffffffffffffffffffffffffffffffffffffff1916908160001a90535060058760ff1611611c595760098760ff1660068110611c3e57611c3d612c5b565b5b602091828204019190069054906101000a900460ff16611c5c565b60005b60f81b8a600181518110611c7357611c72612c5b565b5b60200101907effffffffffffffffffffffffffffffffffffffffffffffffffffffffffffff1916908160001a90535060028660ff1611611cdf57600b8660ff1660038110611cc457611cc3612c5b565b5b602091828204019190069054906101000a900460ff16611ce2565b60005b60f81b8a600281518110611cf957611cf8612c5b565b5b60200101907effffffffffffffffffffffffffffffffffffffffffffffffffffffffffffff1916908160001a905350600b8560ff1611611d6557600d8560ff16600e8110611d4a57611d49612c5b565b5b602091828204019190069054906101000a900460ff16611d68565b60005b60f81b8a600381518110611d7f57611d7e612c5b565b5b60200101907effffffffffffffffffffffffffffffffffffffffffffffffffffffffffffff1916908160001a905350600060f81b8a600481518110611dc757611dc6612c5b565b5b60200101907effffffffffffffffffffffffffffffffffffffffffffffffffffffffffffff1916908160001a90535060188360ff1611611e335760108360ff16601e8110611e1857611e17612c5b565b5b602091828204019190069054906101000a900460ff16611e36565b60005b60f81b8a600581518110611e4d57611e4c612c5b565b5b60200101907effffffffffffffffffffffffffffffffffffffffffffffffffffffffffffff1916908160001a905350600182611e89919061353b565b60f81b8a600681518110611ea057611e9f612c5b565b5b60200101907effffffffffffffffffffffffffffffffffffffffffffffffffffffffffffff1916908160001a9053505b899a5050505050505050505050919050565b600560009054906101000a900473ffffffffffffffffffffffffffffffffffffffff1673ffffffffffffffffffffffffffffffffffffffff163373ffffffffffffffffffffffffffffffffffffffff1614611f72576040517f08c379a0000000000000000000000000000000000000000000000000000000008152600401611f6990612eb6565b60405180910390fd5b600560149054906101000a900460ff1615611fc2576040517f08c379a0000000000000000000000000000000000000000000000000000000008152600401611fb990612f22565b60405180910390fd5b81600160008560ff1660ff1681526020019081526020016000209081611fe891906130ee565b5080600260008560ff1660ff168152602001908152602001600020908161200f91906135b6565b50505050565b60008060048760f81c60ff1661202b9190612d83565b905060008060038361203d9190612dc5565b815461204890612cb9565b811061205757612056612c5b565b5b8154600116156120765790600052602060002090602091828204019190065b9054901a7f01000000000000000000000000000000000000000000000000000000000000000260f81c905060ff8160ff1603612219578060ff16600860006002856120c19190612dc5565b81546120cc90612cb9565b81106120db576120da612c5b565b5b8154600116156120fa5790600052602060002090602091828204019190065b9054901a7f01000000000000000000000000000000000000000000000000000000000000000260f81c60ff16901b601060006001866121399190612dc5565b815461214490612cb9565b811061215357612152612c5b565b5b8154600116156121725790600052602060002090602091828204019190065b9054901a7f01000000000000000000000000000000000000000000000000000000000000000260f81c60ff16901b601860008681546121b090612cb9565b81106121bf576121be612c5b565b5b8154600116156121de5790600052602060002090602091828204019190065b9054901a7f01000000000000000000000000000000000000000000000000000000000000000260f81c60ff16901b17171760e01b9250612435565b60008460f81c60ff1660088760f81c60ff1667ffffffffffffffff16901b60108960f81c60ff1667ffffffffffffffff16901b60188b60f81c60ff1667ffffffffffffffff16901b60208660ff1667ffffffffffffffff16901b6028600060028a6122849190612dc5565b815461228f90612cb9565b811061229e5761229d612c5b565b5b8154600116156122bd5790600052602060002090602091828204019190065b9054901a7f01000000000000000000000000000000000000000000000000000000000000000260f81c60ff1667ffffffffffffffff16901b6030600060018b6123069190612dc5565b815461231190612cb9565b81106123205761231f612c5b565b5b81546001161561233f5790600052602060002090602091828204019190065b9054901a7f01000000000000000000000000000000000000000000000000000000000000000260f81c60ff1667ffffffffffffffff16901b603860008b815461238790612cb9565b811061239657612395612c5b565b5b8154600116156123b55790600052602060002090602091828204019190065b9054901a7f01000000000000000000000000000000000000000000000000000000000000000260f81c60ff1667ffffffffffffffff16901b171717171717179050600360008267ffffffffffffffff1667ffffffffffffffff16815260200190815260200160002060009054906101000a900463ffffffff1660e01b9350505b505095945050505050565b606060008203612487576040518060400160405280600181526020017f3000000000000000000000000000000000000000000000000000000000000000815250905061259b565b600082905060005b600082146124b95780806124a290612df9565b915050600a826124b29190612d52565b915061248f565b60008167ffffffffffffffff8111156124d5576124d4612712565b5b6040519080825280601f01601f1916602001820160405280156125075781602001600182028036833780820191505090505b5090505b60008514612594576001826125209190613688565b9150600a8561252f91906136bc565b603061253b9190612dc5565b60f81b81838151811061255157612550612c5b565b5b60200101907effffffffffffffffffffffffffffffffffffffffffffffffffffffffffffff1916908160001a905350600a8561258d9190612d52565b945061250b565b8093505050505b919050565b6000604051905090565b600080fd5b600080fd5b600063ffffffff82169050919050565b6125cd816125b4565b81146125d857600080fd5b50565b6000813590506125ea816125c4565b92915050565b600060208284031215612606576126056125aa565b5b6000612614848285016125db565b91505092915050565b600081519050919050565b600082825260208201905092915050565b60005b8381101561265757808201518184015260208101905061263c565b60008484015250505050565b6000601f19601f8301169050919050565b600061267f8261261d565b6126898185612628565b9350612699818560208601612639565b6126a281612663565b840191505092915050565b600060208201905081810360008301526126c78184612674565b905092915050565b600060ff82169050919050565b6126e5816126cf565b81146126f057600080fd5b50565b600081359050612702816126dc565b92915050565b600080fd5b600080fd5b7f4e487b7100000000000000000000000000000000000000000000000000000000600052604160045260246000fd5b61274a82612663565b810181811067ffffffffffffffff8211171561276957612768612712565b5b80604052505050565b600061277c6125a0565b90506127888282612741565b919050565b600067ffffffffffffffff8211156127a8576127a7612712565b5b6127b182612663565b9050602081019050919050565b82818337600083830152505050565b60006127e06127db8461278d565b612772565b9050828152602081018484840111156127fc576127fb61270d565b5b6128078482856127be565b509392505050565b600082601f83011261282457612823612708565b5b81356128348482602086016127cd565b91505092915050565b60008060408385031215612854576128536125aa565b5b6000612862858286016126f3565b925050602083013567ffffffffffffffff811115612883576128826125af565b5b61288f8582860161280f565b9150509250929050565b600081519050919050565b600082825260208201905092915050565b60006128c082612899565b6128ca81856128a4565b93506128da818560208601612639565b6128e381612663565b840191505092915050565b6000602082019050818103600083015261290881846128b5565b905092915050565b600080600080600080600080610100898b031215612931576129306125aa565b5b600061293f8b828c016125db565b98505060206129508b828c016125db565b97505060406129618b828c016125db565b96505060606129728b828c016125db565b95505060806129838b828c016125db565b94505060a06129948b828c016125db565b93505060c06129a58b828c016125db565b92505060e06129b68b828c016125db565b9150509295985092959890939650565b6129cf816125b4565b82525050565b60006020820190506129ea60008301846129c6565b92915050565b600067ffffffffffffffff82169050919050565b612a0d816129f0565b8114612a1857600080fd5b50565b600081359050612a2a81612a04565b92915050565b600080600080600080600080610100898b031215612a5157612a506125aa565b5b6000612a5f8b828c01612a1b565b9850506020612a708b828c016125db565b9750506040612a818b828c01612a1b565b9650506060612a928b828c016125db565b9550506080612aa38b828c01612a1b565b94505060a0612ab48b828c016125db565b93505060c0612ac58b828c01612a1b565b92505060e0612ad68b828c016125db565b9150509295985092959890939650565b600060208284031215612afc57612afb6125aa565b5b600082013567ffffffffffffffff811115612b1a57612b196125af565b5b612b268482850161280f565b91505092915050565b600067ffffffffffffffff821115612b4a57612b49612712565b5b612b5382612663565b9050602081019050919050565b6000612b73612b6e84612b2f565b612772565b905082815260208101848484011115612b8f57612b8e61270d565b5b612b9a8482856127be565b509392505050565b600082601f830112612bb757612bb6612708565b5b8135612bc7848260208601612b60565b91505092915050565b600080600060608486031215612be957612be86125aa565b5b6000612bf7868287016126f3565b935050602084013567ffffffffffffffff811115612c1857612c176125af565b5b612c248682870161280f565b925050604084013567ffffffffffffffff811115612c4557612c446125af565b5b612c5186828701612ba2565b9150509250925092565b7f4e487b7100000000000000000000000000000000000000000000000000000000600052603260045260246000fd5b7f4e487b7100000000000000000000000000000000000000000000000000000000600052602260045260246000fd5b60006002820490506001821680612cd157607f821691505b602082108103612ce457612ce3612c8a565b5b50919050565b6000819050919050565b7f4e487b7100000000000000000000000000000000000000000000000000000000600052601260045260246000fd5b7f4e487b7100000000000000000000000000000000000000000000000000000000600052601160045260246000fd5b6000612d5d82612cea565b9150612d6883612cea565b925082612d7857612d77612cf4565b5b828204905092915050565b6000612d8e82612cea565b9150612d9983612cea565b9250828202612da781612cea565b91508282048414831517612dbe57612dbd612d23565b5b5092915050565b6000612dd082612cea565b9150612ddb83612cea565b9250828201905080821115612df357612df2612d23565b5b92915050565b6000612e0482612cea565b91507fffffffffffffffffffffffffffffffffffffffffffffffffffffffffffffffff8203612e3657612e35612d23565b5b600182019050919050565b6000612e4c826126cf565b915060ff8203612e5f57612e5e612d23565b5b600182019050919050565b7f4f6e6c79206465706c6f7965722e000000000000000000000000000000000000600082015250565b6000612ea0600e836128a4565b9150612eab82612e6a565b602082019050919050565b60006020820190508181036000830152612ecf81612e93565b9050919050565b7f436f6e7472616374207365616c65642e00000000000000000000000000000000600082015250565b6000612f0c6010836128a4565b9150612f1782612ed6565b602082019050919050565b60006020820190508181036000830152612f3b81612eff565b9050919050565b60008190508160005260206000209050919050565b60006020601f8301049050919050565b600082821b905092915050565b600060088302612fa47fffffffffffffffffffffffffffffffffffffffffffffffffffffffffffffffff82612f67565b612fae8683612f67565b95508019841693508086168417925050509392505050565b6000819050919050565b6000612feb612fe6612fe184612cea565b612fc6565b612cea565b9050919050565b6000819050919050565b61300583612fd0565b61301961301182612ff2565b848454612f74565b825550505050565b600090565b61302e613021565b613039818484612ffc565b505050565b5b8181101561305d57613052600082613026565b60018101905061303f565b5050565b601f8211156130a25761307381612f42565b61307c84612f57565b8101602085101561308b578190505b61309f61309785612f57565b83018261303e565b50505b505050565b600082821c905092915050565b60006130c5600019846008026130a7565b1980831691505092915050565b60006130de83836130b4565b9150826002028217905092915050565b6130f78261261d565b67ffffffffffffffff8111156131105761310f612712565b5b61311a8254612cb9565b613125828285613061565b600060209050601f8311600181146131585760008415613146578287015190505b61315085826130d2565b8655506131b8565b601f19841661316686612f42565b60005b8281101561318e57848901518255600182019150602085019450602081019050613169565b868310156131ab57848901516131a7601f8916826130b4565b8355505b6001600288020188555050505b505050505050565b600081905092915050565b60006131d682612899565b6131e081856131c0565b93506131f0818560208601612639565b80840191505092915050565b600061320882846131cb565b915081905092915050565b7f3c7265637420783d220000000000000000000000000000000000000000000000600082015250565b60006132496009836131c0565b915061325482613213565b600982019050919050565b7f2220793d22000000000000000000000000000000000000000000000000000000600082015250565b60006132956005836131c0565b91506132a08261325f565b600582019050919050565b7f222077696474683d223122206865696768743d2231222073686170652d72656e60008201527f646572696e673d2263726973704564676573222066696c6c3d22230000000000602082015250565b6000613307603b836131c0565b9150613312826132ab565b603b82019050919050565b7f222f3e0000000000000000000000000000000000000000000000000000000000600082015250565b60006133536003836131c0565b915061335e8261331d565b600382019050919050565b600061337582876131cb565b91506133808261323c565b915061338c82866131cb565b915061339782613288565b91506133a382856131cb565b91506133ae826132fa565b91506133ba82846131cb565b91506133c582613346565b915081905095945050505050565b60006133df82856131cb565b91506133eb82846131cb565b91508190509392505050565b6000613402826125b4565b915061340d836125b4565b92508261341d5761341c612cf4565b5b828206905092915050565b7f2c20000000000000000000000000000000000000000000000000000000000000600082015250565b600061345e6002836131c0565b915061346982613428565b600282019050919050565b60008190508160005260206000209050919050565b6000815461349681612cb9565b6134a081866131c0565b945060018216600081146134bb57600181146134d057613503565b60ff1983168652811515820286019350613503565b6134d985613474565b60005b838110156134fb578154818901526001820191506020810190506134dc565b838801955050505b50505092915050565b600061351882856131cb565b915061352382613451565b915061352f8284613489565b91508190509392505050565b6000613546826126cf565b9150613551836126cf565b9250828201905060ff81111561356a57613569612d23565b5b92915050565b601f8211156135b15761358281613474565b61358b84612f57565b8101602085101561359a578190505b6135ae6135a685612f57565b83018261303e565b50505b505050565b6135bf82612899565b67ffffffffffffffff8111156135d8576135d7612712565b5b6135e28254612cb9565b6135ed828285613570565b600060209050601f831160018114613620576000841561360e578287015190505b61361885826130d2565b865550613680565b601f19841661362e86613474565b60005b8281101561365657848901518255600182019150602085019450602081019050613631565b86831015613673578489015161366f601f8916826130b4565b8355505b6001600288020188555050505b505050505050565b600061369382612cea565b915061369e83612cea565b92508282039050818111156136b6576136b5612d23565b5b92915050565b60006136c782612cea565b91506136d283612cea565b9250826136e2576136e1612cf4565b5b82820690509291505056fe646174613a696d6167652f7376672b786d6c3b757466382c3c73766720786d6c6e733d224c43475f4e4654222076657273696f6e3d22312e32222076696577426f783d22302030203234203234223ea2646970667358221220d41b8d3022ac21c7df43b44ee2c72a6351e8211f996a4a61ba2464f787bbb08b64736f6c63430008110033",
  "linkReferences": {},
  "deployedLinkReferences": {}
}